:020000040800F2
:1000000000C00020F12500082D1100082F11000864
:1000100031110008331100083511000800000000FC
:100020000000000000000000000000003711000880
:1000300039110008000000003B1100083D110008C4
:100040003926000839260008392600083926000814
:100050003926000839260008451100084F1100080C
:1000600039260008392600083926000839260008F4
:1000700039260008392600083926000839260008E4
:10008000392600083926000839260008000000003B
:1000900000000000000000000000000039260008F9
:1000A0000000000000000000000000000000000050
:1000B000591100086911000839260008392600087E
:1000C0003926000839260008392600083926000894
:1000D0003926000839260008392600083926000884
:1000E0003926000839260008000000000000000042
:1000F0000000000000000000000000000000000000
:1001000039260008000000003926000839260008BA
:100110003926000839260008392600083926000843
:100120003926000839260008392600083926000833
:1001300000000000000000000000000000000000BF
:1001400000000000000000000000000000000000AF
:10015000000000000000000000000000000000009F
:10016000000000000000000000000000000000008F
:10017000000000000000000000000000000000007F
:10018000000000000000000000000000000000006F
:10019000000000000000000000000000000000005F
:1001A000000000000000000000000000000000004F
:1001B000000000000000000000000000000000003F
:1001C000000000000000000000000000000000002F
:1001D000000000000000000000000000000000001F
:0401E0005FF8E0F1F3
:1001E40010B5054C237833B9044B13B10448AFF36D
:1001F40000800123237010BD1401002000000000C2
:100204009426000808B5034B1BB103490348AFF318
:10021400008008BD0000000018010020942600089A
:1002240070B50546404B00221A701DE03F4C012278
:100234004FF40041204601F066F93D4E306800F06D
:10024400E9FB01224FF40051204601F05CF93068CB
:1002540000F0E0FB00224FF40051204601F053F976
:10026400314A1378013313702F4B93F90030072B65
:10027400DCDD2D4B00221A701DE02C4C00224FF4C3
:100284000041204601F03FF9294E306800F0C2FBDE
:1002940001224FF40051204601F035F9306800F096
:1002A400B9FB00224FF40051204601F02CF91E4AFC
:1002B4001378013313701C4B93F900300F2BDCDDE2
:1002C400194B07221A701DE000224FF40041174811
:1002D40001F019F9164E306800F09CFB134C012212
:1002E4004FF40051204601F00EF9306800F092FB03
:1002F40000224FF40051204601F005F90A4A137810
:10030400013B1370084B93F90030002B0BDB45FACB
:1003140003F313F0010FD7D001224FF40041034837
:1003240001F0F1F8D6E770BD30010020000C014067
:100334000000002070B50546544B00221A701DE0E1
:10034400534C01224FF40041204601F0DCF8514E99
:10035400306800F05FFB01224FF40051204601F0A9
:10036400D2F8306800F056FB00224FF400512046CA
:1003740001F0C9F8454A137801331370434B93F9DC
:100384000030072BDCDD414B00221A701DE0404C8D
:1003940000224FF40041204601F0B5F83D4E30688C
:1003A40000F038FB01224FF40051204601F0ABF875
:1003B400306800F02FFB00224FF40051204601F07A
:1003C400A2F8324A137801331370304B93F900309A
:1003D400072BDCDD2D4B07221A701DE000224FF4A1
:1003E40000412B4801F08FF82A4E306800F012FBD0
:1003F400274C01224FF40051204601F084F8306864
:1004040000F008FB00224FF40051204601F07BF875
:100414001E4A1378013B13701C4B93F90030002BD8
:100424000BDB45FA03F313F0010FD7D001224FF48D
:100434000041174801F067F8D6E7144B00221A7000
:100444001DE0134C00224FF40041204601F05BF8FC
:10045400104D286800F0DEFA01224FF400512046C6
:1004640001F051F8286800F0D5FA00224FF4005149
:10047400204601F048F8054A137801331370034B02
:1004840093F90030072BDCDD70BD00BF3001002084
:10049400000C0140000000202DE9F04104460D4607
:1004A4001646644B00221A7020E0634F01224FF479
:1004B4000041384601F027F8DFF88081D8F80000C1
:1004C40000F0A8FA01224FF40051384601F01BF85D
:1004D400D8F8000000F09EFA00224FF4005138468C
:1004E40001F011F8534A137801331370514B93F907
:1004F4000030072BD9DD4F4B07221A7020E0002271
:100504004FF400414C4800F0FEFFDFF83081D8F88A
:10051400000000F07FFA484F01224FF400513846A2
:1005240000F0F1FFD8F8000000F074FA00224FF454
:100534000051384600F0E7FF3E4A1378013B137040
:100544003C4B93F90030002B0BDB46FA03F313F01A
:10055400010FD4D001224FF40041374800F0D3FFFB
:10056400D3E7344B07221A701DE000224FF40041F8
:10057400314800F0C8FF314F386800F04BFA2E4E76
:1005840001224FF40051304600F0BDFF386800F0FE
:1005940041FA00224FF40051304600F0B4FF254ADE
:1005A4001378013B1370234B93F90030002B0BDBC2
:1005B40045FA03F313F0010FD7D001224FF40041A1
:1005C4001D4800F0A0FFD6E71A4B07221A701DE061
:1005D40000224FF40041184800F095FF174E306890
:1005E40000F018FA144D01224FF40051284600F08F
:1005F4008AFF306800F00EFA00224FF400512846BA
:1006040000F081FF0B4A1378013B1370094B93F9F7
:100614000030002B0BDB44FA03F313F0010FD7D0A7
:1006240001224FF40041044800F06DFFD6E7BDE815
:10063400F08100BF30010020000C014000000020C8
:1006440038B5144B00221A701DE0134C00224FF4ED
:100654000041204600F057FF104D286800F0DAF9F9
:1006640001224FF40051204600F04DFF286800F0AD
:10067400D1F900224FF40051204600F044FF054A0E
:10068400137801331370034B93F900301F2BDCDD17
:1006940038BD00BF30010020000C014000000020E4
:1006A4002DE9F04784B08246474E01243470474D0B
:1006B400FF232B70464F4FF0FF38CDF8088001948C
:1006C400009523462246C021384601F071F90222E2
:1006D40032700F232B70CDF80880019400952346C7
:1006E400C021384601F064F9032232704FF0070943
:1006F40085F80090CDF80880019400952346C02128
:10070400384601F055F9042232702C70CDF8088077
:10071400019400952346C021384601F049F90C2282
:10072400327000232B70CDF8088001940095234685
:10073400C021384601F03CF986F80090A2453FD02C
:10074400224B00221A70224E4FF0FF3702970125E8
:1007540001951E4C00942B460722C021304601F01F
:1007640027F96022184B1A70802323708123637049
:100774008223A3708323E37084232371852363710D
:100784008623A3718723E3718823237289236372E9
:100794008A23A3728B23E3728C2323738D236373C5
:1007A4008E23A3738F23E373029710230193009482
:1007B4002B46C021304601F0FBF804B0BDE8F087B9
:1007C4002B461C70BFE700BF31010020040000204D
:1007D4008C01002000B585B06830C0B20C4B187095
:1007E40082B90C4B19704FF0FF330293012301932C
:1007F400084A00920246C021074801F0D9F805B022
:100804005DF804FB81F08001024B1970EBE700BF37
:1008140031010020040000208C01002070B5254C1B
:1008240000220421204600F06EFE0A2000F0F2F8B7
:1008340001220421204600F066FE052000F0EAF8BB
:100844000026002E27DD072200232FE0194D40212A
:10085400284600F051FE184B03EBC60380F001005C
:100864001855052000F0D6F801222021284600F072
:100874004AFE0A2000F0CEF800222021284600F08B
:1008840042FE052000F0C6F8013464B2072CDDDD19
:10089400013676B2D5E70024F8E70749C85C8C5CDA
:1008A400CC54885401335BB2013A52B29342F4DB24
:1008B40070BD00BF000801400400002010B5FFF720
:1008C400BFFE00240CE0164B00221A705C70154B1E
:1008D400234483F880203220FFF7A2FC013464B261
:1008E400072C19DC0F4B1A1992F840201B5D9A4211
:1008F400E9D10C4B234493F8C02083F8802014F0F2
:10090400010F03D13220FFF715FDE7E7322211462C
:100914001046FFF7C1FDE1E7FFF792FE10BD00BFEF
:10092400E0010020040000202DE9F04188B00024FB
:100934000494059406940794314B9A6942F010028A
:100944009A619A6902F010020192019A9A6942F03E
:1009540004029A619A6902F004020292029A9A6964
:1009640042F008029A619B6903F008030393039B16
:10097400244E22462421304600F0C5FD224F224653
:100984004FF42041384600F0BEFD032504951F4B6B
:100994000593069404A91E4800F0B4FC2423049390
:1009A4004FF00108CDF814800694079504A9304649
:1009B40000F0A8FC402304930594069404A930464F
:1009C40000F0A0FC4FF420430493CDF81480069467
:1009D400079504A9384600F095FC224621460620D6
:1009E40000F038FC062000F069FC2246214607206E
:1009F40000F030FC072000F061FC08B0BDE8F08195
:100A04000010024000080140000C014000002110C9
:100A1400001001400B4AD36843F08073D3604FF059
:100A24006043094AC3F8B02F03F5805300225A608B
:100A34001A6842F001021A60044B5B688342FBD3DC
:100A4400704700BFF0ED00E055CEACC5001000E0EB
:100A540038B59A4B984200F08380994B984200F045
:100A6400AB80984B1A78E2B9974B1B78CBB9964B6D
:100A74005B78B3B9944B9B789BB9924B5B78002B12
:100A840040F0C680904BDB78002B40F0C1808E4B49
:100A94001B79002B40F0BC808B4B5B79002B40F022
:100AA400B780884B5B78D3B98749C978B9B9864987
:100AB4000979A1B98449497989B9002A40F0D380D8
:100AC40081490978002940F0CE807F49497800297E
:100AD40040F0C9807C498978002940F0C480A3B9DA
:100AE400794BDB788BB9784B1B7973B9764B5B798F
:100AF4005BB952B9744B1B783BB9734B5B7823B920
:100B0400714B9B78002B00F0E1806F4C0122A1789F
:100B14000020FFF75FFE012261781046FFF75AFEBE
:100B2400012221780220FFF755FE664D0122297823
:100B34000320FFF74FFE012261790420FFF74AFEEC
:100B4400012221790520FFF745FE0122E1780620E4
:100B5400FFF740FE012269780720FFF73BFE38BD0E
:100B6400584B1B781BB1013B564A137075E7564B23
:100B74001B7833B1534A09211170013B524A137057
:100B84006BE7514B5B7843B14E4A092111704E4AD1
:100B940005211170013B53705FE74B4B9B78002B91
:100BA4003FF45BAF0921474A1170474A052414708A
:100BB4005170013B937050E7424B5B781BB1013B92
:100BC400404A53704DE7404BDB7833B13D4A09212D
:100BD4005170013B3C4AD37043E73B4B1B7943B113
:100BE400384A09215170384A0521D170013B1371EB
:100BF40037E7354B5B79002B3FF433AF0921314A9A
:100C04005170314A0520D0701171013B537128E7AE
:100C14000022AD211046FFF7DDFD0022AD210120A9
:100C2400FFF7D8FD0022AD210220FFF7D3FD0022FB
:100C3400AD210320FFF7CEFD234C0122617904206E
:100C4400FFF7C8FD012221790520FFF7C3FD01222A
:100C5400E1780620FFF7BEFD01221A4B59780720E0
:100C6400FFF7B8FD7BE7184C0122A1780020FFF7BD
:100C7400B1FD012261781046FFF7ACFD0122217815
:100C84000220FFF7A7FD01220E4B19780320FFF77E
:100C9400A1FD0022AD210420FFF79CFD0022AD211F
:100CA4000520FFF797FD0022AD210620FFF792FDF6
:100CB4000022AD210720FFF78DFD50E72C02002014
:100CC400E40100200401002032010020AD2110467F
:100CD400FFF780FD0022AD210120FFF77BFD0022FC
:100CE400AD210220FFF776FD0022AD210320FFF79E
:100CF40071FD0022AD210420FFF76CFD0022AD211F
:100D04000520FFF767FD0022AD210620FFF762FDF5
:100D14000022AD210720FFF75DFD20E710B5044652
:100D2400012802D0022C07D010BD074801F076FA42
:100D3400064801F03FFAF5E7044801F06FFA02486B
:100D440001F038FAF0E700BF2C020020E401002093
:100D540072B6FEE708B50A480A4B03600A4B4360C3
:100D640000238360C3604FF4804202614361836166
:100D7400C361036200F042FD00B908BDFFF7E8FF5C
:100D84008C01002000580040A086010008B50A48E4
:100D94000A4B03600A4B436000238360C3604FF433
:100DA4008042026143618361C361036200F026FDF6
:100DB40000B908BDFFF7CCFF380100200054004003
:100DC400A086010000B587B0002302930393049327
:100DD40005930093019315484FF0804202604FF44D
:100DE40061624260836042F25B72C260036180238D
:100DF400836101F021FB98B906A94FF4805341F8AF
:100E0400103D0A4801F04EFB60B9002300930193A2
:100E14006946064801F0B4FB30B907B05DF804FB3D
:100E2400FFF796FFFFF794FFFFF792FF2C020020D5
:100E340000B587B0002302930393049305930093B2
:100E440001931548154A02604FF461624260836061
:100E540042F25B72C26003618023836101F0ECFAA9
:100E640098B906A94FF4805341F8103D0A4801F09F
:100E740019FB60B90023009301936946064801F009
:100E84007FFB30B907B05DF804FBFFF761FFFFF7A4
:100E94005FFFFFF75DFF00BFE40100200004004096
:100EA40000B591B02022002107A801F0E9FB00233E
:100EB400019302930393049305930223069301225F
:100EC4000A9210220B920D934FF4E0130F9306A88D
:100ED40000F038FE78B90F23019302230293002314
:100EE400039304930593012101A801F06BF820B941
:100EF40011B05DF804FBFFF72BFFFFF729FF00009B
:100F040038B500F05DF9FFF7CBFFFFF70DFDFFF7F4
:100F140021FFFFF73BFFFFF755FFFFF789FF002095
:100F2400FFF7BEFB264C0122A1780020FFF752FCFC
:100F3400012261781046FFF74DFC0122217802203E
:100F4400FFF748FC1F4D012229780320FFF742FCDC
:100F5400012261790420FFF73DFC0122217905205B
:100F6400FFF738FC0122E1780620FFF733FC012269
:100F740069780720FFF72EFCFFF762FB002406E0E8
:100F8400322211461046FFF787FA0134E4B2082CE6
:100F940006D814F0010FF3D13220FFF7CBF9F4E7B0
:100FA40041F2883000F030F9FFF738FC012000F0FE
:100FB4002BF9FFF783FC012000F026F9F4E700BFCA
:100FC400320100200401002082B00E4B9A6942F0E5
:100FD40001029A619A6902F001020092009ADA69A8
:100FE40042F08052DA61DB6903F080530193019B84
:100FF400054A536823F0E06343F00073536002B082
:10100400704700BF001002400000014010B588B0D6
:10101400002304930593069307930368224A93429B
:1010240004D0224A93421FD008B010BD204CA369BB
:1010340043F00803A361A36903F008030093009B32
:10104400C0230493122305930323079304A9194887
:1010540000F058F9E36943F40013E361E36903F42E
:1010640000130193019BDFE7114CA36943F00803CC
:10107400A361A36903F008030293029B4FF4406346
:101084000493122305930323079304A9094800F04A
:1010940039F9E36943F48003E361E36903F480030A
:1010A4000393039BC0E700BF005400400058004076
:1010B40000100240000C014000B583B00368B3F196
:1010C400804F05D0164A934216D003B05DF804FB56
:1010D40003F50433DA6942F00102DA61DB6903F0F3
:1010E40001030093009B002211461C2000F0B2F87B
:1010F4001C2000F0E3F8E8E70A4BDA6942F0020248
:10110400DA61DB6903F002030193019B00221146BB
:101114001D2000F09FF81D2000F0D0F8D5E700BF97
:101124000004004000100240FEE7FEE7FEE7FEE791
:10113400FEE770477047704708B500F053F808BDE4
:1011440008B5012000F0E6F908BD08B5022000F05A
:10115400E1F908BD08B5024801F07DF808BD00BFFB
:101164002C02002008B5024801F075F808BD00BF44
:10117400E40100207047000010B504460E4B1878B7
:101184004FF47A73B3FBF0F30C4A1068B0FBF3F03E
:1011940000F0A2F868B90F2C01D901200AE000225E
:1011A40021464FF0FF3000F055F8034B5C600020FF
:1011B40000E0012010BD00BF0C0100200801002048
:1011C40008B5074A136843F010031360032000F0C6
:1011D4002FF80020FFF7D0FFFFF7F6FE002008BD30
:1011E40000200240034A1168034B1B780B44136030
:1011F400704700BF740200200C010020014B1868E6
:10120400704700BF7402002038B50446FFF7F6FFAC
:101214000546B4F1FF3F02D0044B1B781C44FFF792
:10122400EDFF401BA042FAD338BD00BF0C010020E3
:10123400074AD36823F4E0631B041B0C000200F488
:10124400E060184340F0BF6040F40030D060704765
:1012540000ED00E030B4174BDB68C3F30223C3F1A5
:101264000704042C28BF04241D1D062D18D9033B94
:101274004FF0FF3505FA04F421EA0401994005FA18
:1012840003F322EA0303194300280BDB0901C9B263
:1012940000F1604000F5614080F8001330BC7047F5
:1012A4000023E5E700F00F000901C9B2024B19540D
:1012B400F4E700BF00ED00E014ED00E0002807DBD8
:1012C40000F01F02400901239340024A42F82030F3
:1012D400704700BF00E100E00138B0F1807F0AD21E
:1012E400064B5860064AF02182F8231000209860CB
:1012F40007221A6070470120704700BF10E000E029
:1013040000ED00E0F0B482B000263246ABE0002DE0
:1013140063D0012D00D1CE68FF2B72D88446FF2BF9
:1013240072D89500DCF800400F27AF4024EA070488
:1013340006FA05F52C43CCF800404C6814F0805FA5
:1013440000F09080664CA56945F00105A561A4698B
:1013540004F001040194019C9508AF1C614C54F8FD
:1013640027C002F00304A7000F24BC402CEA040C9D
:101374005D4CA0424ED004F58064A04200F08C8005
:1013840004F58064A04200F0898004F58064A042E2
:1013940000F0868004F58064A04200F0838004F5A8
:1013A4008064A04234D0062435E0504FBD4214D0AE
:1013B4000BD94F4FBD4210D007F58037BD420CD03A
:1013C400A7F58017BD42A7D107E0A7F58017BD4256
:1013D40003D007F58037BD429ED18D687DB1012DC4
:1013E40008D04461082697E7CE68083694E7CE68AB
:1013F4000C3691E7046108268EE700268CE7042664
:101404008AE700F1040C8AE7A2F10805AD0089E738
:10141400052400E00024BC4044EA0C040235314FAA
:1014240047F825404C6814F4803F3DD0314D2C687A
:101434001C432C604C6814F4003F3BD02D4D6C6869
:101444001C436C604C6814F4801F39D0294DAC687F
:101454001C43AC604C6814F4001F37D0254DEC6875
:101464002343EB6001320B6833FA02F434D00124D5
:10147400944023409C42F5D14D68122DB7D094D8A6
:10148400022DB1D07FF643AF032DB6D0112D7FF4DA
:1014940043AFCE6804363FE70124BCE70224BAE731
:1014A4000324B8E70424B6E7124D2C6824EA0304A5
:1014B4002C60BFE70F4D6C6824EA03046C60C1E73D
:1014C4000C4DAC6824EA0304AC60C3E7094DEC6836
:1014D40024EA0303EB60C5E702B0F0BC704700BF29
:1014E40000100240000001400008014000002110EB
:1014F40000003110000401408368194201D100202A
:1015040070470120704712B90904016170470161F5
:101514007047000008B5054B5B69034200D108BD64
:10152400024B5861FFF7FAFBF9E700BF00040140E2
:1015340003685A6912F4806F11D06FF480625A61A3
:1015440000230363202280F83D2080F83E30026CA3
:1015540042F00402026480F83C300120704700200D
:101564007047F8B506460C4617461D4622E0FFF7BD
:1015740045FE069BC01AA84200D8DDB90023336398
:10158400202286F83D2086F83E30326C42F020025C
:10159400326486F83C3001201AE033685B6924EA3F
:1015A40003039BB2B3FA83F35B099F420FD1B5F1F6
:1015B400FF3FDCD1C4F30743012BEED033689B69B2
:1015C40024EA03039BB2B3FA83F35B09EDE700203B
:1015D400F8BDF8B504460D4616461F463CE01A68A9
:1015E40042F400721A6023686FF480625A61002327
:1015F4002363202284F83D2084F83E30226C42F09C
:101604000402226484F83C30012033E0FFF7F6FD45
:10161400C01BB04200D8FEB900232363202284F803
:101624003D2084F83E30226C42F02002226484F88B
:101634003C3001201EE023685B6925EA03039BB26A
:10164400003318BF0123A3B123685A6912F4806FD1
:10165400C5D1B6F1FF3FD9D1C5F30743012BEAD079
:1016640023689B6925EA03039BB2003318BF012357
:10167400E9E70020F8BD70B504460D461646236818
:101684005B6913F0800F1CD12046FFF751FFD0B9DE
:10169400B5F1FF3FF3D0FFF7B1FD801BA84201D89D
:1016A400002DECD100232363202284F83D2084F80C
:1016B4003E30226C42F02002226484F83C30012047
:1016C40000E0002070BD0120FCE700002DE9F0419E
:1016D40084B00446884616461F460B9D026813686C
:1016E40043F48073136000950A9B00224FF00111AC
:1016F400FFF737FF60B123681B6813F4807F4FD076
:101704004FF4007323640323184604B0BDE8F0814A
:10171400226808F0FE0313612B460A9A21492046E9
:10172400FFF757FF08B10123EEE700230393236873
:101734005A6903929B690393039B2A460A9920469C
:10174400FFF799FF034658B1236C042B01D0012302
:10175400DAE72268136843F4007313600123D3E7C4
:10176400012F0ED02368320A1A612A460A992046AC
:10177400FFF781FF034678B1236C042B05D00123C6
:10178400C2E72268F6B21661BEE72268136843F422
:10179400007313600123B7E72268F6B21661B3E75A
:1017A4000323B1E70200010070B504460D46164656
:1017B40023685B6913F0040F1CD12046FFF7B8FEC1
:1017C400D0B9B5F1FF3FF3D0FFF718FD801BA84255
:1017D40001D8002DECD100232363202284F83D207E
:1017E40084F83E30226C42F02002226484F83C30BB
:1017F400012000E0002070BD0120FCE7002800F07B
:10180400C880F8B5044690F83D30002B75D02423E9
:1018140084F83D302268136823F0010313602268C2
:10182400136843F4004313602268136823F40043ED
:10183400136000F081FC6268584B9A4262D8584B9E
:1018440098428CBF00230123002B40F0A480554B09
:10185400A3FB00239B0C21684A6822F03F021A4331
:101864004A6025682A6A22F03F0266684B498E4224
:101874004ED8013313432B622568E96921F44F41A3
:1018840021F0FF016368454A93424BD801385B005D
:10189400B0FBF3F30133C3F30B03042B38BF04236E
:1018A4000B43EB6121680B6823F0C003E269206AF3
:1018B400024313430B6021688B6823F4034323F032
:1018C400FF032269E068024313438B602168CB68FD
:1018D40023F0FF036269A06902431343CB602268CB
:1018E400136843F00103136000202064202384F86C
:1018F4003D30206384F83E00F8BD80F83C30FFF7AB
:1019040085FB84E7284B98428CBF002301239BE787
:101914004FF4967101FB03F32449A1FB03139B09C4
:101924000133A7E7A268BAB9461E03EB4307B6FB27
:10193400F7F60136C6F30B06B6FA86F6760936BB19
:10194400C2B9013803EB4303B0FBF3F30133C3F330
:101954000B0242F40043A3E7461E03EB830707EBA5
:101964008707B6FBF7F60136C6F30B06B6FA86F61A
:101974007609E4E7013803EB830303EB8303B0FB4D
:10198400F3F20132C2F30B0242F4404388E701232D
:1019940086E7012070470120AEE700BFA086010062
:1019A4007F841E0083DE1B43FF083D00D34D62107D
:1019B4002DE9F04182B004460E4617469846FFF7DB
:1019C4001DFC94F83D30DBB2202B04D002231846D2
:1019D40002B0BDE8F08105460090192301224C496C
:1019E4002046FFF7BEFD002840F08B8094F83C3081
:1019F400012B00F08880012384F83C3023681A68A6
:101A040012F0010F03D11A6842F001021A60226831
:101A1400136823F400631360212384F83D304023CA
:101A240084F83E3000232364089B6362BDF82430AD
:101A34006385638D2385374BE36201950A9B00938D
:101A440043463A4631462046FFF740FE00285CD123
:101A5400238D002B34D02A460A992046FFF70BFE2B
:101A640010BB626A236812781A61616A4B1C636254
:101A7400238D013B9BB22385628D013A92B262852C
:101A84002268506910F0040FE2D0002BE0D04B78AC
:101A94001361636A01336362238D013B2385638D84
:101AA400013B9BB26385D3E7236C042B01D0012354
:101AB4008DE72268136843F400731360012386E7FB
:101AC4002A460A992046FFF76FFE034658B1236C55
:101AD400042B01D001237AE72268136843F40073CE
:101AE4001360012373E721680A6842F400720A60F4
:101AF400202284F83D20002284F83E2084F83C20F3
:101B040065E7022363E7022361E701235FE700BF80
:101B1400020010000000FFFF82B0084B1B68084A57
:101B2400A2FB03235B0A00FB03F0019000BF019BAF
:101B34005A1E0192002BF9D102B07047080100200F
:101B4400D34D6210002800F0F58170B582B00446D0
:101B5400036813F0010F2CD0AB4B5B6803F00C034C
:101B6400042B1DD0A84B5B6803F00C03082B12D088
:101B74006368B3F5803F41D0002B55D103F1804316
:101B840003F504331A6822F480321A601A6822F4C6
:101B940080221A6037E09C4B5B6813F4803FE7D0E7
:101BA400994B1B6813F4003F03D06368002B00F0CB
:101BB400C381236813F0020F76D0934B5B6813F054
:101BC4000C0F5FD0904B5B6803F00C03082B54D0D0
:101BD4002369002B00F08A808C4B01221A60FFF7E6
:101BE4000DFB0546884B1B6813F0020F75D1FFF7F8
:101BF40005FB401B0228F5D90320A0E1824A1368A3
:101C040043F480331360636843B3FFF7F7FA054680
:101C14007D4B1B6813F4003FCBD1FFF7EFFA401B59
:101C24006428F5D903208AE1B3F5A02F09D0764BB7
:101C34001A6822F480321A601A6822F480221A6028
:101C4400E1E703F18043A3F53C331A6842F48022B0
:101C54001A601A6842F480321A60D4E7FFF7CEFAA9
:101C64000546694B1B6813F4003FA2D0FFF7C6FA80
:101C7400401B6428F5D9032061E1634B5B6813F4CE
:101C8400803FA5D1604B1B6813F0020F04D0236979
:101C9400012B01D0012052E15B4A136823F0F803C1
:101CA400616943EAC1031360236813F0080F32D05B
:101CB400A369002B5BD0564B01221A60FFF79EFAF2
:101CC4000546514B5B6A13F0020F21D1FFF796FAD8
:101CD400401B0228F5D9032031E14B4A136823F055
:101CE400F803616943EAC1031360DDE7474B00224F
:101CF4001A60FFF783FA0546434B1B6813F0020F83
:101D0400D2D0FFF77BFA401B0228F5D9032016E155
:101D14000120FFF701FF236813F0040F00F09880FF
:101D2400394BDB6913F0805F33D1374BDA6942F00A
:101D34008052DA61DB6903F080530193019B012532
:101D4400344B1B6813F4807F25D0E368012B36D015
:101D5400002B4CD103F1804303F504331A6A22F0BB
:101D640001021A621A6A22F004021A622CE0284B59
:101D740000221A60FFF742FA0546234B5B6A13F010
:101D8400020FC8D0FFF73AFA401B0228F5D9032006
:101D9400D5E00025D4E71F4A136843F48073136029
:101DA400FFF72CFA06461B4B1B6813F4807FCCD13B
:101DB400FFF724FA801B6428F5D90320BFE0124AF8
:101DC400136A43F001031362E3687BB3FFF716FA67
:101DD40006460D4B1B6A13F0020F38D1FFF70EFABB
:101DE400801B41F288339842F3D90320A7E0052BE6
:101DF40012D0054B1A6A22F001021A621A6A22F002
:101E040004021A62E0E700BF0010024000004242F0
:101E140080044242007000404C4B1A6A42F00402B3
:101E24001A621A6A42F001021A62CDE7FFF7E6F974
:101E34000646464B1B6A13F0020F08D0FFF7DEF983
:101E4400801B41F288339842F3D9032077E0E5B947
:101E5400E369002B72D03D4A526802F00C02082A52
:101E640056D0022B17D03A4B00221A60FFF7C6F95E
:101E74000446364B1B6813F0007F47D0FFF7BEF9CA
:101E8400001B0228F5D9032059E0304AD36923F016
:101E94008053D361DCE72E4B00221A60FFF7AEF9C2
:101EA40005462A4B1B6813F0007F06D0FFF7A6F9FE
:101EB400401B0228F5D9032041E0236AB3F5803F93
:101EC4001AD022494B6823F47413226A606A0243CD
:101ED40013434B601E4B01221A60FFF78FF904462F
:101EE4001A4B1B6813F0007F0ED1FFF787F9001B14
:101EF4000228F5D9032022E0144A536823F400335E
:101F0400A1680B435360DCE7002018E0002016E0D2
:101F1400012B16D00D4B5B6803F48031226A914289
:101F240001D001200BE003F47013626A93420AD0DB
:101F3400012004E001207047012000E0002002B0ED
:101F440070BD0120FBE70020F9E700BF001002404C
:101F54006000424210B487B0164C94E80F000DF1B3
:101F6400180C0CE90F00238AADF80430124B5B689F
:101F740003F00C02082A1AD1C3F38342624412F814
:101F8400102C13F4803F05D10C4800FB02F007B07D
:101F940010BC7047084B5B68C3F34043634413F8B9
:101FA400143C074800FB02F0B0FBF3F0EFE70448F1
:101FB400EDE700BFC42600080010024000093D0000
:101FC40000127A00002800F0A38070B50446524B3A
:101FD4001B6803F007038B420CD24F4A136823F0AB
:101FE40007030B431360136803F007038B4201D00C
:101FF400012070BD236813F0020F17D013F0040FF3
:1020040004D0464A536843F4E0635360236813F0F2
:10201400080F04D0414A536843F4605353603F4A65
:10202400536823F0F003A068034353600D4623680C
:1020340013F0010F31D06368012B20D0022B25D07F
:10204400364A126812F0020F64D034494A6822F00A
:10205400030213434B60FFF7D1F806462F4B5B682E
:1020640003F00C036268B3EB820F16D0FFF7C6F8D7
:10207400801B41F288339842F0D90320B9E7274AFC
:10208400126812F4003FE0D10120B2E7234A12683B
:1020940012F0007FD9D10120ABE71F4B1B6803F07E
:1020A4000703AB420CD91C4A136823F007032B43E4
:1020B4001360136803F00703AB4201D0012098E7D3
:1020C400236813F0040F06D0144A536823F4E06322
:1020D400E1680B435360236813F0080F07D00F4ADD
:1020E400536823F46053216943EAC1035360FFF743
:1020F40031FF0A4B5B68C3F30313094AD35CD8402E
:10210400084B1860084B1868FFF736F8002070E792
:102114000120704701206CE70020024000100240BB
:10212400AC2600080801002010010020014B1868AB
:10213400704700BF0801002008B5FFF7F7FF044B04
:102144005B68C3F30223034AD35CD84008BD00BFD5
:1021540000100240BC26000810B4036A046A24F08C
:1021640001040462846924F0F00444EA021223F0B6
:102174000A030B438261036210BC704710B4036A04
:1021840023F0100303628469036A24F4704444EA6C
:10219400023223F0A00343EA01138261036210BCFC
:1021A4007047836823F07003194341F0070181608D
:1021B4007047000090F83D30DBB2012B01D00120C4
:1021C4007047022380F83D300268D36843F001036E
:1021D400D3600368B3F1804F10D00F4A93420DD0FF
:1021E40002F58062934209D002F58062934205D0E1
:1021F4001A6842F001021A60002070479A6802F0DF
:102204000702062A05D01A6842F001021A6000206B
:1022140070470020704700BF000400400268D36884
:1022240023F00103D3600368196A41F211121142C9
:1022340008D1196A40F24442114203D11A6822F0CB
:1022440001021A60012380F83D3000207047704776
:1022540070477047704710B5044603681A6912F056
:10226400020F11D0DA6812F0020F0DD06FF00202E3
:102274001A610123037703689B6913F0030F70D07D
:10228400FFF7E6FF0023237723681A6912F0040F8F
:1022940012D0DA6812F0040F0ED06FF004021A6143
:1022A4000223237723689B6913F4407F5FD0204681
:1022B400FFF7CEFF0023237723681A6912F0080F73
:1022C40012D0DA6812F0080F0ED06FF008021A610B
:1022D400042323772368DB6913F0030F4ED02046D1
:1022E400FFF7B6FF0023237723681A6912F0100F53
:1022F40012D0DA6812F0100F0ED06FF010021A61CB
:10230400082323772368DB6913F4407F3DD02046FC
:10231400FFF79EFF0023237723681A6912F0010F49
:1023240003D0DA6812F0010F36D123681A6912F06B
:10233400800F03D0DA6812F0800F34D123681A6951
:1023440012F0400F03D0DA6812F0400F32D1236844
:102354001A6912F0200F03D0DA6812F0200F30D17E
:1023640010BDFFF774FF2046FFF773FF8AE720468E
:10237400FFF76DFF2046FFF76CFF9BE72046FFF752
:1023840066FF2046FFF765FFACE72046FFF75FFFD7
:102394002046FFF75EFFBDE76FF001021A61204699
:1023A400FEF756FBC1E76FF080021A61204600F089
:1023B4001CF9C3E76FF040021A612046FFF74AFF99
:1023C400C5E76FF020021A61204600F00DF9C7E757
:1023D4000368B0F1804F0AD0164A904207D002F544
:1023E4008062904203D002F58062904203D123F0D0
:1023F40070034A681343B0F1804F0AD00D4A9042EB
:1024040007D002F58062904203D002F580629042C8
:1024140003D123F44073CA68134323F080034A6949
:10242400134303608B68C3620B68836201234361B7
:10243400704700BF0004004038B310B5044690F85C
:102444003D30EBB1022384F83D30211D2068FFF7B5
:10245400BFFF012384F8463084F83E3084F83F30CF
:1024640084F8403084F8413084F8423084F84330B2
:1024740084F8443084F8453084F83D30002010BDA1
:1024840080F83C30FEF718FEDCE70120704710B4FA
:10249400846824F47F4442EA03230B432343836088
:1024A40010BC704790F83C30012B66D010B5044640
:1024B400012380F83C30022380F83D3002689368A1
:1024C40023F47F4323F0770393600B68402B4AD0B7
:1024D40013D9602B3DD01ED9702B28D0B3F5005FE3
:1024E40030D1CB684A6889680068FFF7D0FF22685A
:1024F400936843F48043936024E0102B06D004D9FE
:10250400202B03D0302B01D01CE0DBB91946206806
:10251400FFF747FE16E0502B14D1CA6849680068DB
:10252400FFF71AFE50212068FFF73BFE0AE0CB6854
:102534004A6889680068FFF7AAFF2268936843F035
:1025440077039360012384F83D30002084F83C0035
:1025540010BDCA6849680068FFF710FE6021206852
:10256400FFF71FFEEEE7CA6849680068FFF7F4FD4D
:1025740040212068FFF715FEE4E7022070470000C1
:1025840090F83C30012B2BD030B4012380F83C3040
:10259400022380F83D3003685C689D6824F0700471
:1025A4000A6822435A600368B3F1804F0AD00D4A87
:1025B400934207D002F58062934203D002F5806211
:1025C400934204D125F080054A6815439D60012398
:1025D40080F83D30002380F83C30184630BC70470A
:1025E400022070470004004070477047002103E058
:1025F4000B4B5B58435004310A480B4B42189A4228
:10260400F6D30A4A02E0002342F8043B084B9A42FC
:10261400F9D3FEF7AFFD00F00FF8FEF771FC704739
:10262400E02600080000002014010020140100200E
:1026340078020020FEE7000070B500250C4E0D4C1A
:10264400A41BA410A54209D100F022F800250A4ECB
:102654000A4CA41BA410A54205D170BD56F8253020
:1026640098470135EEE756F8253098470135F2E7EB
:10267400D8260008D8260008D8260008DC2600083A
:1026840003460244934200D1704703F8011BF9E763
:10269400F8B500BFF8BC08BC9E467047F8B500BF4B
:0826A400F8BC08BC9E4670471B
:1026AC0000000000000000000102030406070809F6
:1026BC0000000000010203040203040506070809D8
:0C26CC000A0B0C0D0E0F10100102000094
:0426D80009020008EB
:0426DC00E50100080C
:1026E0000A000000000000000000000001010101DC
:1026F00001010101000000000000000000000000D6
:1027000000000000000000000000000000000000C9
:1027100000000000010101010101010101010101AD
:102720000101010101010101010101010101010199
:102730000101010100000000000000000000000095
:102740000000000000000000000000000000000089
:10275000000000000101010101010101010101016D
:102760000101010102030405060403020101010144
:102770000101010100000000000000000000000055
:102780000000000000000000000000000000000049
:10279000000000000A0A0A0A0A0A0A0A141E28325D
:1027A0003C281E1402030405060403020101010172
:1027B0000101010100000000000000000000000015
:1027C0000000000000000000000000000000000009
:1027D000000000000A0A0A0A0A0A0A0A141E28321D
:1027E0003C281E14030300000024F4000100000034
:0427F00010000000D5
:04000005080025F1D9
:00000001FF
